:020000040800F2
:10000000A0070020C90D00082102000823020008F3
:10001000270200082B0200082F0200080000000041
:100020000000000000000000000000003302000893
:1000300035020008000000003702000839020008FD
:10004000E30D0008E30D0008E30D0008E30D0008D0
:10005000E30D0008E30D0008E30D0008E30D0008C0
:10006000E30D0008E30D0008E30D0008E30D0008B0
:10007000E30D0008E30D0008E30D0008E30D0008A0
:10008000E30D0008E30D0008E30D0008E30D000890
:10009000E30D0008E30D0008E30D0008E30D000880
:1000A000E30D0008E30D0008E30D0008E30D000870
:1000B000E30D0008E30D0008E30D0008E30D000860
:1000C000E30D0008E30D0008E30D0008E30D000850
:1000D000E30D00083D0D0008E30D0008E30D0008E6
:1000E000E30D0008E30D0008E30D0008E30D000830
:1000F000E30D0008E30D0008E30D0008E30D000820
:10010000E30D0008E30D0008E30D0008E30D00080F
:10011000E30D0008E30D0008E30D0008E30D0008FF
:10012000E30D0008E30D0008E30D0008E30D0008EF
:1001300000F002F800F051F80AA090E8000C8244A8
:100140008344AAF10107DA4501D100F046F8AFF285
:10015000090EBAE80F0013F0010F18BFFB1A43F0A5
:10016000010318473439000054390000103A24BF05
:1001700078C878C1FAD8520724BF30C830C144BF0C
:1001800004680C607047000000230024002500264E
:10019000103A28BF78C1FBD8520728BF30C148BFEA
:1001A0000B607047662903F05482642901F0AA8627
:1001B000782901F0E386002070471FB59DE8030011
:1001C00001F0C4FF02F09CFA04000020002103F0BB
:1001D00055F8E0601FBD10B510BD02F0C6FB11461A
:1001E000FFF7EBFF00F008F802F0E4FB03B4FFF7C1
:1001F000F2FF03BC00F044FD08B54FF4165000F0C8
:1002000051FD684600F08EFB40B100F007F900F0A8
:1002100079F900F0A9F9684600F0B5FB002008BDA7
:10022000704700BFFEE700BFFEE700BFFEE700BF6C
:10023000FEE7704770477047704700000CB500201C
:10024000019000906C48006840F480306A49086072
:1002500000BF6948006800F4003000900198401C1D
:100260000190009818B90198B0F5A06FF1D16248DB
:10027000006800F4003010B10120009001E000207F
:1002800000900098012843D15C48006840F01000BD
:100290005A4908600846006820F0030008600846D4
:1002A000006840F0020008605348406852494860C6
:1002B0000846406848600846406840F480604860EE
:1002C0000846406820F47C1048600846406840F4C6
:1002D000E81048600846006840F08070086000BF81
:1002E0004548006800F000700028F9D04248406896
:1002F00020F00300404948600846406840F0020092
:10030000486000BF3C48406800F00C000828F9D164
:100310000CBD10B5FFF792FF10BD10B53648006850
:1003200040F00100344908600846406834490840FC
:100330003149486008460068324908402E49086043
:100340000846006820F4802008600846406820F4D1
:10035000FE0048604FF41F008860FFF7DAFF4FF09F
:1003600000602949086010BD10B50021002000225E
:10037000214B5B6803F00C0121B1042906D0082948
:1003800028D107E0214B224C236027E01F4B204C53
:10039000236023E0184B5B6803F47010164B5B6816
:1003A00003F48032022303EB904022B9194B4343FC
:1003B000174C23600DE0104B5B6803F4003323B14E
:1003C000144B4343124C236003E0104B4343104C47
:1003D000236003E00D4B0E4C236000BF00BF064BB3
:1003E0005B68C3F303130C4CE15C094B1B68CB4007
:1003F000074C236010BD00000010024000200240A6
:100400000000FFF8FFFFF6FE08ED00E000127A00A2
:100410000000002000093D000400002000B587B066
:1004200001214FF4017001F00BF84FF4004000F08F
:100430006BFF0220ADF8040000208DF8070001A931
:100440002E4800F041FD2E4801F0D0FA0020029025
:100450008DF80C008DF80D004FF460200490002002
:10046000059001208DF8180002A9254801F0E5FA51
:100470000121234801F00DFB214801F02CFB00BFB6
:100480001F4801F02DFB0028FAD11D4801F032FB76
:1004900000BF1B4801F033FB0028FAD107B000BDB4
:1004A00010B50446072301222146154801F05DFBE3
:1004B0000121134801F02DFB00BF0221104801F07B
:1004C00099FC0028F9D00E4801F0B6FB10BD2DE9CB
:1004D000F04107460C460025002608E03846FFF7A5
:1004E000DFFF0544052000F09EFB701CC6B2A6424B
:1004F000F4DBB5FBF4F080B2BDE8F0810008014008
:100500000024014008B50121042000F099FF0220D9
:10051000ADF8000010208DF8030003208DF80200D4
:100520006946FD4800F0D0FC0221FB4800F079FD4F
:1005300008BD08B50220ADF8000048208DF8030082
:100540006946F54800F0C0FC08BD08B50220ADF8CA
:10055000000010208DF8030003208DF8020069468A
:10056000ED4800F0B1FC08BD10B5FFF7EEFF022129
:10057000E94800F058FD4FF4F07000F030FB022124
:10058000E54800F04EFD0F2000F029FB10BD10B52E
:100590000024FFF7CEFF04E0601CC4B2012000F08D
:1005A0001EFB0221DC4800F022FD08B1642CF3DBC5
:1005B000642C01DB012010BD002404E0601CC4B2E7
:1005C000012000F00CFB0221D34800F010FD08B917
:1005D000F02CF3DBF02C01DB0120ECE70020EAE754
:1005E00010B5FFF7B2FF0221CB4800F01CFD02203E
:1005F00000F0F5FA0221C84800F013FD0C2000F0CD
:10060000EEFAFFF796FF0221C34800F0F0FC08B1B4
:10061000012400E00024322000F0E1FA204610BD61
:1006200070B5002402251FE06006040EFFF78DFF61
:100630000221B94800F0F7FC022000F0D0FA0221B4
:10064000B54800F0EEFCFFF774FF0C2000F0C7FA8D
:100650000221B14800F0CBFC08B144F00104322083
:1006600000F0BDFA681EC5B2002DDDDC204670BD6D
:1006700070B50026002408E0FFF7B2FF054605FA32
:1006800004F03043C6B2601CC4B2082CF4DB304620
:1006900070BD10B50446FFF758FF74B102219E48A3
:1006A00000F0C1FC022000F09AFA02219A4800F002
:1006B000B8FC3C2000F093FA0DE00221964800F0CF
:1006C000B2FC3C2000F08BFA0221934800F0A9FC18
:1006D000022000F084FA10BD70B50446FFF735FF24
:1006E000012522E004F00106641076B102218A4857
:1006F00000F099FC0A2000F072FA0221864800F00E
:1007000090FC322000F06BFA0DE00221824800F0EC
:100710008AFC3C2000F063FA02217F4800F081FC53
:10072000022000F05CFA681CC5B2082DDADD70BD4D
:1007300010B5FFF7E7FEFFF717FFFFF728FF10BD23
:100740002DE9FC5F8146FFF70FFFFFF720FFCC206C
:10075000FFF7C2FF4420FFF7BFFFFFF705FFFFF7DA
:1007600016FF5520FFF7B8FF002507E06B4901EBA6
:10077000C901485DFFF7B0FF681CC5B2082DF5DB65
:10078000BE20FFF7A9FFFFF773FF0646FFF770FFD4
:10079000044604F0FC00B8B146EA04200FFA80FADF
:1007A0006FEA0A00401C02F0F1FE8346584602F050
:1007B000C1FE074600225A4B02F0BEFDCDE9000102
:1007C00002F072FD83460DE046EA042002F09DFD32
:1007D00007460022524B02F0AFFDCDE9000102F0C6
:1007E00063FD83465846BDE8FC9F2DE9F04F93B06A
:1007F0000020119012900026824600BFFFF7B4FE41
:100800004FF4F07000F0EBF9F020FFF765FF0024E3
:1008100072E00027002564E0FFF702FF814609F03F
:1008200003097F10B9F1010F08D10020FFF731FF54
:10083000002005EBC40101AA505450E0B9F1020FA9
:100840000AD147F080070120FFF723FF012005EBC5
:10085000C40101AA505442E0B9F1000F3BD105EBAD
:10086000C400401C00F0FF0811A8805D40450EDA6E
:100870000020FFF70EFF002005EBC40101AA505431
:10088000701CC0B2064611A901F8008027E011A82B
:10089000805D40450EDD05EBC40001A9085C00F059
:1008A000010047EAC01705EBC40101AA505CFFF73D
:1008B000F0FE14E011A8805D404510D147F080079C
:1008C0000120FFF7E6FE012005EBC40101AA505408
:1008D000701EC6B203E0002013B0BDE8F08F681CA4
:1008E000C5B2082D98DBBB465F460C4800EBCA003A
:1008F00000F804B0601CC4B2082C8ADB0AF10100C5
:1009000000F0FF0A11A8805D18B1BAF1080FFFF6D8
:1009100075AF5046E0E700000008014034000020B9
:100920000000B03F10B50446102001F087FA2060A7
:1009300084B10020216808702168C860216848607F
:10094000202001F07BFA216888602068806808B167
:10095000012010BD0020FCE710B50446FFF717FE8C
:1009600008B1022010BD0A210120FFF7B0FD216867
:10097000C8602068C06840F6B831884201D90020BC
:10098000F0E70120EEE788B00546002470E0284635
:10099000FFF7E2FF296808702868007820B1012875
:1009A00006D002285ED10EE032A001F077FA5AE0BC
:1009B0002968898988B200F0D3F88046414630A082
:1009C00001F06CFA4FE0FFF710FF296848602868D3
:1009D0004068002845DD286841682EA001F05EFAD5
:1009E00000243AE02046FFF7ABFE2968896841F809
:1009F00024002968896851F8240002F09BFDCDE9A4
:100A000006012A4800EBC400C079284901EBC40163
:100A10008979264A02EBC4025279244B03EBC403C2
:100A20001B79CDE90132CDE90310204800EBC40069
:100A3000C07800901D4800EBC40083781B4800EB91
:100A4000C4004278194810F8341019A001F026FAB1
:100A500015A001F023FA601CC4B228684068A042C7
:100A6000C0DC00E000BF00BF4FF4FA6000F0DBF82C
:100A70008DE700004E6F2073656E736F720D0A0074
:100A80006E74635F74656D702A3130203D2025647B
:100A900000000000445331384232305F53656E73BA
:100AA0006F724E756D3A25640D0A00003400002007
:100AB00049443A253032782530327825303278254D
:100AC000303278253032782530327825303278252A
:100AD0003032782054656D703A252E32660D0A004A
:100AE000F0B503460E460024701E85B2002753F869
:100AF0002400904201D8E0B2F0BD53F825009042A6
:100B000001D3E8B2F8E722E0601900EBD07CCCF327
:100B10004F0153F82100904200D11AE053F8210010
:100B2000904205D9481C53F82000904200D210E0B2
:100B300053F82100904201D20D4600E00C463846A1
:100B400007F1010C0CF0FF07B04200DD01E0AC4200
:100B5000DADB00BFAC4201DD0020CDE7C8B2CBE755
:100B60002DE9F043044640F6E44104FB01F0C117CF
:100B700000EB1151C1F30F354FF4FA6005FB00F79C
:100B800040F6C410401BB7FBF0F086B23246DC21C1
:100B90000548FFF7A5FF804608EB8800A0F15F0934
:100BA0004846BDE8F08300005836000810B56FF0E5
:100BB000040000F0FCFE2E4800682E49B0FBF1F066
:100BC0002D4908700846007800EB4001C1EBC010C9
:100BD0004FF6FF7101EAC0002849088010BD0146A8
:100BE000254A12784A434FF0E0235A6100229A6165
:100BF0001A46126942F001021A6100BF4FF0E0226A
:100C0000106900F001021AB100F48032002AF5D018
:100C10004FF0E022126922F001024FF0E0231A6146
:100C200000229A6170470146144A12884A434FF0E5
:100C3000E0235A6100229A611A46126942F00102C9
:100C40001A6100BF4FF0E022106900F001021AB1F2
:100C500000F48032002AF5D04FF0E022126922F031
:100C600001024FF0E0231A6100229A6170470000F0
:100C70000000002000127A0014000020160000205E
:100C8000014600BF704700BF4B4A128802F0400285
:100C9000002AF9D0C2B2484B1B1D1A80704701468A
:100CA00000BF704710B586B00446012144F204002D
:100CB00000F0C6FB4FF40070ADF8140003208DF86F
:100CC000160018208DF8170005A93C4800F0FCF824
:100CD0004FF48060ADF8140004208DF8170005A9CA
:100CE000364800F0F1F825208DF8000003208DF83B
:100CF00001008DF8020001208DF80300684600F025
:100D00000CFE01940020ADF80800ADF80A00ADF823
:100D10000C00ADF810000C20ADF80E0001A926481B
:100D200000F035FC012240F22551234800F0C7FCB9
:100D30000121214800F0B7FC06B010BD10B540F20B
:100D400025511D4800F0A0FD10B31B4800F01CFD0C
:100D5000C4B21B48008800F40040C8B91848008895
:100D600000F4804060B10A2C03D0002014490880B0
:100D700020E01348008840F400401149088019E041
:100D80000D2C06D10E48008840F480400C490880A4
:100D900010E00B480088C0F30D000A490C540848C5
:100DA0000088401C0649088008460088C72801DDE5
:100DB0000020088010BD00000038014000080140FC
:100DC0001C000020740000200948804709480047A3
:100DD000FEE7FEE7FEE7FEE7FEE7FEE7FEE7FEE7EB
:100DE000FEE7FEE704480549054A064B7047000048
:100DF0001B03000831010008A0010020A00700200B
:100E0000A0030020A003002010B50446CC48844273
:100E100008D10121042000F02DFB0021042000F066
:100E200029FB46E0C748844208D10121082000F090
:100E300021FB0021082000F01DFB3AE0C24884425B
:100E400008D10121102000F015FB0021102000F036
:100E500011FB2EE0BD48844208D10121202000F082
:100E600009FB0021202000F005FB22E0B848844265
:100E700008D10121402000F0FDFA0021402000F0BF
:100E8000F9FA16E0B348844208D10121802000F02D
:100E9000F1FA0021802000F0EDFA0AE0AE48844229
:100EA00007D10121801500F0E5FA0021A01500F01E
:100EB000E1FA10BD10B50121084600F0DBFA00216F
:100EC000012000F0D7FA10BD2DE9F04102460025BF
:100ED0000026002000230024002791F803C00CF016
:100EE0000F0591F803C00CF0100CBCF1000F03D0FB
:100EF00091F802C04CEA050591F800C0BCF1000F62
:100F000031D0146800202BE04FF0010C0CFA00F3F4
:100F1000B1F800C00CEA03069E4220D183004FF0D6
:100F20000F0C0CFA03F7BC4305FA03FC4CEA04046B
:100F300091F803C0BCF1280F06D14FF0010C0CFA58
:100F400000FCC2F814C00AE091F803C0BCF1480FDD
:100F500005D14FF0010C0CFA00FCC2F810C0401C87
:100F60000828D1D31460B1F800C0BCF1FF0F34DD04
:100F7000546800202EE000F1080C4FF0010808FA38
:100F80000CF3B1F800C00CEA03069E4221D18300A5
:100F90004FF00F0C0CFA03F7BC4305FA03FC4CEAC4
:100FA000040491F803C0BCF1280F05D100F1080C2E
:100FB00008FA0CF8C2F8148091F803C0BCF1480F8D
:100FC00007D100F1080C4FF0010808FA0CF8C2F83C
:100FD0001080401C0828CED35460BDE8F0814FF645
:100FE000FF710180022181700421C17070470246A7
:100FF000002093680B400BB1012000E000207047F7
:101000000146886880B2704702460020D3680B40D2
:101010000BB1012000E0002070470146C86880B293
:10102000704701617047416170470AB1016100E09A
:1010300041617047C16070474FF480320A4382615A
:101040008161826182698269704702460020434B58
:1010500018684FF68073184040EA021008433F4B6F
:10106000186070473E49C8617047F0B50A460023D2
:1010700000240021002500F00046B6F1004F02D107
:10108000364EF16901E0354E7168C0F3034583B215
:1010900000F44016B6F5401F08D121F070612F4EC4
:1010A000766826F070662D4F7E6012E000F48016A0
:1010B000B6F5801F06D1032606FA05F4A14341F0D8
:1010C000706106E0460D360103FA06F6B14341F0C1
:1010D000706122B1460D360103FA06F6314300F085
:1010E0000046B6F1004F02D11C4EF16101E01B4EEB
:1010F0007160F0BD30B500228B071C0F0F2303FA7F
:1011000004F2164B08338C1053F824309343134CDD
:1011100008348D1044F8253023468C1053F82430C1
:101120008C07240F00FA04F423430C4C08348D1070
:1011300044F8253030BD0A49DC31086070470000B2
:1011400000080140000C0140001001400014014063
:1011500000180140001C0140002001400000014037
:1011600000002042DF48006840F00100DD490860CF
:1011700008464068DC490840DA494860084600688B
:10118000DA490840D74908600846006820F4802002
:1011900008600846406820F4FE0048604FF41F00D5
:1011A00088607047CF49096821F48031CD4A1160C9
:1011B0001146096821F480211160B0F5803F03D009
:1011C000B0F5802F0ED106E0C649096841F48031A0
:1011D000C44A116007E0C349096841F4A021C14A2B
:1011E000116000E000BF00BF704710B5014600224B
:1011F000002300204A11012A02D1BA4C236806E0DC
:10120000022A02D1B74C236A01E0B64C636A01F0AE
:101210001F02012494401C400CB1012000E000207A
:1012200010BD38B5002000900024002500BF3120FB
:10123000FFF7DBFF05460098401C00900098B0F5D2
:10124000A06F01D0002DF2D03120FFF7CEFF08B102
:10125000012400E00024204638BD01460020A14AB8
:10126000106820F0F80040EAC10010607047A04903
:1012700008607047024600209A4B586820F47C10A2
:1012800042EA01031843974B586070479849086633
:10129000704701460020934A506820F0030008433D
:1012A000506070478F48406800F00C00704701465E
:1012B00000208C4A506820F0F000084350607047CE
:1012C00001460020874A506820F4E06008435060DF
:1012D000704701460020834A506820F4605040EA7D
:1012E000C1005060704729B17E4A527A02437D4B5B
:1012F0005A7204E07B4A527A82437A4B5A727047A0
:101300007B49D8310860704701460020754A506813
:1013100020F440400843506070470021714A203259
:101320001170704A82F82010012802D004280AD1D6
:1013300004E001216B4A2032117005E00521694A61
:101340002032117000E000BF00BF7047694908609B
:1013500070476449096A0143624A116270476549EE
:1013600044390860704730B5002100220024002372
:101370005C4D6D6805F00C0121B1042905D00829E8
:1013800023D105E05C4D056022E05B4D05601FE068
:10139000544D6D6805F47012524D6D6805F480343B
:1013A000022505EB92421CB9544D554305600BE0F4
:1013B0004C4D6D6805F400351DB1504D5543056029
:1013C00002E04D4D5543056002E04B4D056000BF06
:1013D00000BF444D6D6805F0F0010909484D6B5C94
:1013E0000568DD4045603F4D6D6805F4E061090A20
:1013F000434D6B5C4568DD4085603A4D6D6805F492
:101400006051C90A3E4D6B5C4568DD40C560354D95
:101410006D6805F44041890B3A4D6B5CC568B5FBBE
:10142000F3F5056130BD29B12E4A526902432D4BB7
:101430005A6104E02B4A526982432A4B5A61704731
:1014400029B1284A92690243264B9A6104E0254A51
:1014500092698243234B9A61704729B1214AD2692C
:101460000243204BDA6104E01E4AD26982431D4BDD
:10147000DA61704729B11B4AD2680243194BDA601E
:1014800004E0184AD2688243164BDA60704729B1EB
:10149000144A12690243134B1A6104E0114A12699B
:1014A0008243104B1A6170471249403908607047F7
:1014B0000F49C86470470B49C87170470948406AB2
:1014C00040F0807007494862704701460020054A95
:1014D00092680A400AB1012000E0002070470149EB
:1014E00088727047001002400000FFF8FFFFF6FE10
:1014F000000042428004424200127A0000093D008E
:101500001E0000202E00002010B50446FB48844237
:1015100009D101218803FFF7ADFF00214FF480407E
:10152000FFF7A8FF32E0F648844209D101214804C0
:10153000FFF7ADFF00214FF40030FFF7A8FF25E0D3
:10154000F048844209D101218804FFF7A0FF00215F
:101550004FF48020FFF79BFF18E0EB48844209D14D
:101560000121C804FFF793FF00214FF40020FFF78B
:101570008EFF0BE0E548844208D101210805FFF702
:1015800086FF00214FF48010FFF781FF10BD2DE989
:10159000F04786B005460E460024A24600BFA1468D
:1015A0000027B08900B100BF2F462C8A4CF6FF708F
:1015B0000440F08804432C82AC894EF6F3100440BA
:1015C000B08831890843718908430443AC81AC8AEF
:1015D0004FF6FF400440B0890443AC8201A8FFF7F6
:1015E000C2FEC648874202D1DDF810A001E0DDF856
:1015F0000CA0A88900F4004040B10AEBCA0000EB3F
:101600000A1031684900B0FBF1F807E00AEBCA00A4
:1016100000EB0A1031688900B0FBF1F86420B8FBD8
:10162000F0F004012009642101FB1089A88900F46D
:10163000004040B1322000EBC900B0FBF1F000F0F7
:101640000700044308E0322000EB09106421B0FBDE
:10165000F1F000F00F0004432C8106B0BDE8F087E4
:101660004FF41651016000218180C18001810C215D
:10167000418100218181704710B502460020108A07
:101680004FF2FF0318400B884C8823438C88234378
:10169000CC8823431843108210BD00210180418073
:1016A0008180C180704721B1828942F400528281D9
:1016B00004E082894DF6FF731A4082817047F0B5CD
:1016C0000346002400260025002040F66A17B94290
:1016D00000D100BF1846C1F3421401F01F060127D4
:1016E00007FA06F5012C01D10C3004E0022C01D1DF
:1016F000103000E014301AB107682F43076002E091
:101700000768AF430760F0BD1AB1838A0B43838239
:1017100002E0838A8B4383827047028A4FF6F0731C
:101720001A400282028A0A430282704782894FF27B
:10173000FF731A40828182890A438281704721B1F6
:10174000828942F00202828104E082894FF6FD73B1
:101750001A4082817047028A4FF6DF731A40028274
:10176000028A0A430282704721B1028A42F480420F
:10177000028204E0028A4BF6FF731A40028270472D
:10178000C1F308028280704701468888C0F30800D0
:101790007047818941F0010181817047028BD2B28B
:1017A0000283028B42EA012202837047028B02F419
:1017B0007F420283028B0A430283704721B1828AEF
:1017C00042F02002828204E0828A4FF6DF731A40E0
:1017D0008282704721B1828A42F01002828204E044
:1017E000828A4FF6EF731A408282704721B1828A53
:1017F00042F00802828204E0828A4FF6F7731A40B0
:101800008282704721B1828942F40042828103E0E2
:101810008289C2F30E028281704721B1828A42F42A
:101820000062828204E0828A4FF2FF731A40828251
:101830007047828A4FF6FB731A408282828A0A437B
:101840008282704721B1828A42F00202828204E0E1
:10185000828A4FF6FD731A4082827047024600204A
:10186000B1F5007F00D100BF13880B400BB1012000
:1018700000E00020704701F40072B2F5007F00D153
:1018800000BFCA430280704770B50246002400239F
:101890000025002040F66A16B14200D100BFC1F316
:1018A000421501F01F03012606FA03F3012D02D1B0
:1018B0009689334006E0022D02D1168A334001E0BA
:1018C000968A33400C12012606FA04F41688344036
:1018D00013B10CB1012000E0002070BD10B5002252
:1018E000002340F66A14A14200D100BF0A1201246D
:1018F0009440A3B2DC43048010BD000000380140D6
:101900000044004000480040004C004000500040AF
:1019100031490143314A1160704770B500210023FD
:101920000F22C47804B32D4C246804F4E064C4F599
:10193000E064210AC1F10403CA40447804FA03F1C7
:101940008478144021430901254C0678A155047878
:1019500004F01F050124AC4005786D11AD0005F1C0
:10196000E025C5F8004109E0047804F01F050124D2
:10197000AC401C4D0678761145F8264070BD1A4AD9
:101980000A400243154B1B1F1A60704739B1134AB6
:10199000121D12680243114B1B1D1A6006E00F4A0C
:1019A000121D126882430D4B1B1D1A6070470428DC
:1019B00008D14FF0E021096941F004014FF0E02225
:1019C000116107E04FF0E021096921F004014FF0B7
:1019D000E0221161704700000000FA050CED00E004
:1019E00000E400E080E100E080FFFF1F10B5044646
:1019F000FA48844208D101214015FFF73BFD002140
:101A00006015FFF737FD17E0F548844208D1012142
:101A10000015FFF72FFD00212015FFF72BFD0BE030
:101A2000F048844208D10121C803FFF723FD0021BB
:101A30004FF40040FFF71EFD10BD30B502460020F8
:101A400000235068E84C20400D790C6844EA0524D6
:101A5000204350609068E54C2040D1E902542C436B
:101A60004D7944EA450420439060D06A20F4700028
:101A70000C7C641EE4B2234340EA0350D06230BDC4
:101A800000210160017141718160C1600121017417
:101A9000704721B1826842F00102826003E08268EF
:101AA00022F001028260704721B1826842F48072A4
:101AB000826003E0826822F480728260704710B511
:101AC0000023CBB21AB144681C43446002E044686E
:101AD0009C43446010BD816841F0080181607047FB
:101AE000014600208A6802F008020AB1012000E0E5
:101AF00000207047816841F0040181607047014611
:101B000000208A6802F004020AB1012000E00020EF
:101B1000704721B1826842F4A002826003E08268CB
:101B200022F4A00282607047014600208A6802F415
:101B300080020AB1012000E00020704710B50A467B
:101B400000210023416821F46041531E41EA4331E2
:101B5000416010BD21B1426842F40062426003E07E
:101B6000426822F4006242607047F0B504460D46B8
:101B700000200021092D11DDE068A5F10A0606EB21
:101B80004607072606FA07F18843A5F10A0606EB81
:101B9000460603FA06F10843E0600CE0206905EB15
:101BA0004507072606FA07F1884305EB450603FAC1
:101BB00006F108432061072A0FDA606B561E06EB18
:101BC00086071F2606FA07F18843561E06EB86068F
:101BD00005FA06F10843606322E00D2A0FDA206B54
:101BE000D61F06EB86071F2606FA07F18843D61F85
:101BF00006EB860605FA06F10843206310E0E06A6A
:101C0000A2F10D0606EB86071F2606FA07F18843A8
:101C1000A2F10D0606EB860605FA06F10843E0621E
:101C2000F0BD21B1826842F48012826003E08268D4
:101C300022F48012826070470146C86C80B27047FF
:101C400066484C300068704721B1426842F48062B7
:101C5000426003E0426822F480624260704721B132
:101C6000426842F48052426003E0426822F48052AB
:101C7000426070470A460021816821F4E041114327
:101C80008160704721B1826842F40042826003E0C3
:101C9000826822F400428260704721B1826842F477
:101CA0000212826003E0826822F4021282607047AE
:101CB000014600208A6802F400120AB1012000E007
:101CC00000207047F0B5044615460020002200268B
:101CD000092911DDE068A1F10A0707EB470C072786
:101CE00007FA0CF29043A1F10A0707EB470703FA42
:101CF00007F21043E0600CE0206901EB410C07277C
:101D000007FA0CF2904301EB410703FA07F2104384
:101D10002061A06BC0F30156EF1C06F1010CA7EB8C
:101D20000C0707EB870C1F2707FA0CF29043EF1CF8
:101D300006F1010CA7EB0C0707EB870701FA07F286
:101D40001043A063F0BD10B50A4600210023816B4B
:101D500021F44011531E41EA0351816310BD08B5BF
:101D6000002300930090009B0B440093009B1A609B
:101D700008BD08B5024600200090009201F128003D
:101D8000009B184400900098006880B208BD0A4685
:101D900000214168164B1940114341607047416270
:101DA000826270470A460021416821F01F011143F9
:101DB0004160704740B109490831096841F40001A8
:101DC000064A0832116007E004490831096821F425
:101DD0000001024A083211607047000000240140EF
:101DE00000280140003C0140FFFEF0FFFDF7F1FF3D
:101DF000FFFD3FFF0246002013680B400BB101209E
:101E000000E000207047CA430260704770B5024688
:101E10000020002300240B125568CEB205EA060408
:101E200015681D4015B10CB1012000E0002070BD07
:101E300000220A12D34303607047704770B506460C
:101E400000F068F9056806F10B0020F00704B442C1
:101E50009CBF002070BD2B466A68BAB11068A042D2
:101E600010D304F1080188423CBF5068586007D382
:101E70005168101941601168091B016058601460B5
:101E8000101D70BD13465268002AE7D1214628462E
:101E900000F048F90028DED170BD00000FB40449FD
:101EA00010B503AA029800F015FC10BC5DF814FBF5
:101EB0001800002070B5044685690068C10601D588
:101EC000302600E02026C00707D070BDD4E90121EC
:101ED00030469047206A401C20626D1EF6D570BDCA
:101EE00070B5044685690078C00707D170BDD4E994
:101EF000012120209047206A401C20626D1EF6D5EB
:101F000070BD00002DE9F0410646002410687529D7
:101F1000314616A510D0AFF30080002802DA404207
:101F200013A507E031688A0701D512A502E0490729
:101F300004D511A5012401E0AFF3008000210A229D
:101F400006F1240709E0B0FBF2FCB0FBF2F302FB60
:101F50001C00303078541846491C0028F3D1234621
:101F60002A463046BDE8F04100F04DB900000000BF
:101F70002D0000002B0000002000000070B504467A
:101F80000D4621461068AFF300802188090502D56F
:101F90000F4A7A4402E00E4A7A440E32002104F1DC
:101FA000240305E000F00F060009965D5E54491C0D
:101FB0000028F7D120780023000704D5702D02D027
:101FC00009B1022311322046BDE8704000F01BB970
:101FD000321A00002DE9F05F894604464FF0000AEE
:101FE000DFF824B1FB44C0F820A02046E168884710
:101FF00000287DD0252806D0D4E901219047206A09
:10200000401C2062F1E700255F462046E1688847D2
:102010002028064607DB312E05D2B81910F8200C0F
:1020200008B10543F1E7A80701D525F00405C4F878
:102030001CA00027C4F818A02A2E09D0304601F0B1
:1020400015F938B304EB8708303EC8F8186019E07A
:1020500059F8041B204604EB87029161E168884728
:10206000012F064618D1E069002820DA25F0200566
:102070001DE0D8F8180000EB800006EB4000303877
:10208000C8F818002046E1688847064601F0EEF8D7
:102090000028EED1012F0AD02E2E08D12046E1686B
:1020A00088477F1C0646022F45F02005C4DBA06947
:1020B000002803DA404245F00105A061E80701D09D
:1020C00025F01005A6B1A6F14100192802D8203646
:1020D00045F400654A463146204625604D46FEF7E8
:1020E00061F860B1012807D0ED1D25F0070000E080
:1020F00007E000F1080978E705F1040975E73046C3
:102100007AE7206ABDE8F09F081A00007047704720
:10211000704770470048704744010020704770477F
:102120007047704738B504460A4600206946AFF349
:102130000080002808BF38BD02460099204600F004
:10214000E3FA012038BD012000F008BCF8B5AFF378
:102150000080054600200C46102000BF0646A81946
:10216000A0420DD9324669460020AFF30080070037
:1021700008BF00F0F3FB0098A04218BF0546C41941
:10218000FFF7C8FF05600746F01D20F0070046195D
:10219000284600F00AF8B44208BFF8BDA21B314639
:1021A0003868BDE8F84000F0AFBA00210160C0E92E
:1021B000011070471020704770B50446051FFFF7E7
:1021C000A9FF0068002C14BF446870BD002C18BF24
:1021D000AC423CBF20466468F8D301680A18AA42A2
:1021E00018BF456003D12A6805461144016028687C
:1021F0004119A1421CBF6C6070BD616869602168B3
:102200000844286070BD2DE9F0470D469946924676
:10221000044600F124080168880604D5E06921F02D
:102220001001216000E00120A84201DD471B00E011
:102230000027A1697A1902EB0900081AA061207829
:10224000C00602D42046FFF735FE002608E0D4E998
:1022500001211AF806009047206A401C761C206273
:102260004E45F4DB2078C0060AD52046FFF722FE53
:1022700006E0D4E9012130209047206A401C20620A
:10228000381EA7F10107F4DC07E0D4E9012118F8B2
:1022900005009047206A401C2062281EA5F1010518
:1022A000F3DC2046FFF71CFE2078000602D5022052
:1022B000BDE8F0870120FBE770472DE9FF4F0C4692
:1022C0001E464FF0FF378BB0D2E90001DDF8608089
:1022D0000A908A46C1F30A5505B93D4600210846D1
:1022E0004FF00000BAF1000F00F4400005DA00EBF7
:1022F00080004FF4400101EA50004FEA9059B9F1D3
:10230000010F00DDB9460A9850EA4A000ED044F6A3
:102310001050A5F2FF3545432F14B8F1000F1ED021
:102320007542291E1EDDC9F100021CE0B8F1010F43
:102330004FF0000001D0302103E0F24305E02154CA
:10234000401CB042FBDB30460022002121540B9997
:10235000C1F80880C1E900200FB0BDE8F08FBD1BB7
:102360006D1CDEE74A4600DA694206A800F084FAEE
:1023700006AB93E8070003AB83E8070050460A99D1
:1023800000F0A5FB8DE80700A0F500501F38009075
:102390000398002D09DD42F21F014A46084403A9B3
:1023A0000390684600F004FE08E0A0F500504A469D
:1023B0001F3803A90390684600F00EFE8DE8070061
:1023C0000004000C03D04FF0FF30410800E010463D
:1023D000B8F1000F03D00022009215461EE0751ED2
:1023E00005D400F0ABF9303262556D1EF9D5B34615
:1023F0000122084302D000227F1C04E0207830280C
:1024000001D100227F1E002A099786D01DE0112DE0
:1024100007DA00F093F9303262556D1C50EA010280
:10242000F5D1084302D00098C8B10EE00021681E23
:1024300005E0235C625C63542254401E491C8142C7
:10244000F7DBAB46A81B401E0990002004F80B00E8
:102450000B98099AC0F80880C0E9002B7CE7112688
:102460004FF0000859E72DE9F04F88460446D21D89
:1024700022F0070191B0D1E90001CDE90A0100F095
:10248000E1FE02460B98C00F01D02D2007E0206826
:10249000810701D52B2002E0202101EAC000032A98
:1024A000099001D0072A05DB03464146204600F08B
:1024B000A3F90BE12078800601D5E06900E0062051
:1024C000B8F1650F814606D0B8F1660F18D0B8F1A3
:1024D000670F70D131E00020B9F1110F009001DBDE
:1024E000112301E009F101030AAA01A90CA8FFF7D1
:1024F000E4FEDDE90C70002609F10105834647E0A2
:1025000001204B4600904FF000470AAA01A90CA8F1
:10251000FFF7D3FEDDE90DB00C995D46002610B93A
:1025200009F101000D18B9EB050003D4C0F1FF3625
:1025300009F10105A5EB09002BE0B9F1010F01DA62
:102540004FF001090020B9F1110F0090484601DD5C
:10255000112300E003460AAA01A90CA8FFF7ADFE6B
:10256000DDE90C704D4600268346207800070AD42A
:10257000AB4500DA5D4601A8012D04DD411911F8D3
:10258000011C302907D04F4502DA17F1040F04DA95
:10259000012082460FE06D1EEEE7002F02DCED1BEE
:1025A0003E4403E0781CA84200DD7D1CB81B00F10E
:1025B000010A4FF000472078000703D4AA4501DB49
:1025C0004FF0FF3A0021B7F1004F0DF143088DF8AD
:1025D000431024D002202B23002F01DA7F422D2329
:1025E0000A21021EA0F1010000DC5FB197FBF1FCA3
:1025F00097FBF1F201FB1C7C17460CF1300C08F83C
:1026000001CDEEE7A8F1010003702188090501D58D
:10261000452100E06521A0F1010800F8011C09989E
:102620000FA9A1EB0807FF1D00B10120411901EB23
:10263000EA70A1693844081A401EA0612078C006DB
:1026400002D42046FFF736FC099828B1D4E90121CD
:102650009047206A401C20622078C00622D5204680
:10266000FFF728FC1EE0002E04DBB34502DD01A8C5
:10267000805D00E03020D4E901219047206A401CB1
:102680002062761CAAF101005FEA000A0AD100F07C
:1026900037F8C0680168405CD4E901219047206A9E
:1026A000401C2062281EA5F10105DCDC07E0D4E90E
:1026B000012118F8010B9047206A401C2062381E47
:1026C000A7F10107F3DC2046FFF70AFC032011B055
:1026D00043E60000074B70B50D467B4400F079F8E7
:1026E0000446284600F036F910B14FF0FF3070BDB7
:1026F000204670BDA9E5FFFF004870473C0100205F
:10270000004870475C010020034640688C46002862
:1027100018BF88423CBF03464068F8D31868184485
:10272000884207D00CF1030020F00700001D411A79
:10273000521A0146081D0A60FFF73EBD30B5B0F1E0
:102740000A024FEA900E71F100034EEA817EB0EB6F
:102750000E0061EB91014FEA101E4EEA017E10EB74
:102760000E0041EB11114FEA102E4EEA016E10EBF4
:102770000E0041EB11214FEA104E4EEA014E10EBD4
:102780000E0041EB1141401841F100014FEAD00029
:1027900040EA41704FEAD10110EB80054FEA810415
:1027A00044EA907444EB01046D1944EB0404521B99
:1027B000A3414FF0000348BF0A3200D530BD401C92
:1027C00041F1000130BD000001694A1C0261087836
:1027D000704700B58FB0CDE9013100210591054961
:1027E0007944CDE9031011466846FFF7F3FB0FB0BB
:1027F00000BD0000E5FFFFFF2DE9F0411F46044644
:1028000003260168072A01F4006004DB08B116A55D
:1028100005E016A503E008B115A500E015A521F017
:1028200010002060A069C01EA0610FB1401EA06111
:102830002046FFF73FFB4FB1D4E9012138469047CE
:10284000206A401C2062C01C206206E0206AFAE771
:10285000D4E9012115F8010B9047761EF8D22046E5
:10286000FFF73EFBBDE8F0814E414E006E616E0009
:10287000494E4600696E66002DE9F04781461646CE
:102880008AB0334878440DC88DE80D00304878444C
:10289000801C03AC0DC884E80D0041F69B30084451
:1028A000372190FBF1F290FBF1F5A5F1800501FBDA
:1028B00012041B3C02D56442012000E00020DFF836
:1028C00090A080460027FA44AAF1BE0A0DE0E00776
:1028D00009D03246684607EB47010AEB810100F058
:1028E0007BFB8DE8070064107F1C002CEFD1184F94
:1028F0007F44AC3F18E0E80714D007EB04100DF15B
:10290000180A90E80E008AE80E00C068F04201D173
:1029100098190890324606A903A800F05DFB03ABA6
:1029200083E807006D10641C002DE4D1324669462F
:10293000B8F1000F03A802D000F03AFB01E000F06C
:102940004BFBC9E90001C9F808200AB0BDE8F087CF
:10295000F8110000007B00F08000704710B500F017
:1029600035F8BDE8104000F02BB87546FFF7C4FEFF
:10297000AE4605006946534620F00700854618B06C
:1029800020B5FEF72FFABDE820404FF000064FF0CB
:1029900000074FF000084FF0000B21F00701AC4694
:1029A000ACE8C009ACE8C009ACE8C009ACE8C009B3
:1029B0008D4670470446AFF300802046FDF716FCB5
:1029C000002801D0FEF75CB97047000010B501285F
:1029D00005D0002103A000F061F8012010BD09A17D
:1029E000F8E7000053494752544D454D3A204F7582
:1029F00074206F662068656170206D656D6F7279F7
:102A0000000000003A2048656170206D656D6F72AE
:102A10007920636F72727570746564004FF0013CC9
:102A200050F8042B51F8043B9A4221D1A2EB0C033D
:102A3000934313EACC1317D150F8042B51F8043BFD
:102A40009A4215D1A2EB0C03934313EACC130BD19A
:102A500050F8042B51F8043B9A4209D1A2EB0C0325
:102A6000934313EACC13DBD04FF00000704700BF54
:102A7000D01A01BAB1FA81F101F0180122FA01F07D
:102A8000CB40C1F12001DBB2C0B2C01A2CFA01F375
:102A9000D11A914311EAC311E6D1704770B50546CA
:102AA0000C460A2000E06D1CFEF7F9F835B12878D5
:102AB0000028F8D102E0641CFEF7F1F814B1207888
:102AC0000028F8D1BDE870400A20FEF7E8B85FEAB8
:102AD000400C08BF91F0000F4FEA8C234FEAC1224F
:102AE00043EA51514FEA1C5018BF00F5F0404FEA3D
:102AF000300018BF41F000415FEA6C5C00F02980B3
:102B0000BCF1FF3F08BF40F080407047130C06BF88
:102B100012044FF0100C4FF0000C130E04BF120201
:102B20000CF1080C130F04BF12010CF1040C930FED
:102B300004BF92000CF1020CD30F04BF52000CF141
:102B4000010C11464FF00002A0F11F00A0EB0C0099
:102B5000704711F0004F08BF704731F000413FF45B
:102B6000D5AF0B0C06BF09044FF0100C4FF0000C52
:102B70000B0E04BF09020CF1080C0B0F04BF090176
:102B80000CF1040C8B0F04BF89000CF1020CCB0F6D
:102B900004BF49000CF1010CCCF12003A0EB0C00A8
:102BA00022FA03F302FA0CF241EA030100F10100F8
:102BB000704720F07F4C80EA030023F07F47ACEBA6
:102BC000070303F57C5300F0004003F1FF032DE9F8
:102BD00080494FEA154B09B44FEA144325EA0B4EDE
:102BE00024EA03480FF2042606EB132749083E782F
:102BF0005FEA320203FB0667C7F5000707FB06F62C
:102C00004FEA54374FEAD64606F1020607FB066C38
:102C1000CCF1005C4FEA1C472CEA074C07FB06F49A
:102C20000CFB06F504EB15464FEA961634BF002060
:102C30004FF000404FEAD13706FB07FC4FEA1C4C2F
:102C40000CFB0BF7D21B03FB0CF761EB07010CFB32
:102C50000EF7B0EB074072EB17420CFB08F734BFDE
:102C6000A2EB0742B2EB074261EB17414FEA0C447B
:102C70004FEA910706FB07FC4FEA1C4C0CFB0BF7D5
:102C8000B0EBC74072EB573203FB0CF734BFA2EB3B
:102C9000C742B2EBC74261EB57310CFB0EF7B0EB0A
:102CA000C70072EB57720CFB08F734BFA2EBC702E8
:102CB000B2EBC70261EB5771039F4FEA816141EAB2
:102CC000921104EBCC044FEAD1374FEA826206FB43
:102CD00007FC42EA90124FEA80604FEA1C4C0CFB62
:102CE0000BF7D21B03FB0CF761EB07010CFB0EF794
:102CF000B0EB074072EB17420CFB08F734BFA2EBB6
:102D00000742B2EB074261EB17414FEA8C554FEA9D
:102D1000910704EB9C2406FB07FC4FEA1C4C0CFBC0
:102D20000BF7B0EBC74072EB573203FB0CF734BF25
:102D3000A2EBC742B2EBC74261EB57310CFB0EF777
:102D4000B0EBC70072EB57720CFB08F734BFA2EB75
:102D5000C702B2EBC70261EB577115EB4C254FEA86
:102D6000816141EA92114FEA82624FEAD13742EA29
:102D7000901206FB07FC44F100044FEA80604FEA22
:102D80001C4C0CFB0BF7D21B03FB0CF761EB070190
:102D90000CFB0EF7B0EB074072EB17420CFB08F789
:102DA00034BFA2EB0742B2EB074261EB174115EBD0
:102DB0001C154FEA813141EA92414FEA823242EAE0
:102DC00090424FEA80304FEA0C7644F1000448EA22
:102DD00003434EEA0B484FF0000EB2EB080C71EBC8
:102DE000030724BF624639464EEB0E0E4FF0000B30
:102DF0000018524149414BEB0B0BB2EB080C71EB45
:102E000003077BF1000B24BF624639464EEB0E0EE2
:102E10004FF0000B0018524149414BEB0B0BB2EB4A
:102E2000080C71EB03077BF1000B24BF62463946A7
:102E30004EEB0E0E51EA020718BF46F0010616EBE4
:102E40000E7655F1000254F1000103D5BDE8890169
:102E5000BDE80088BDE88901BDE80048B6195241C7
:102E600041EB0101A3F10103704780807F7E7D7CEF
:102E70007B7A7978777676757473727171706F6E0C
:102E80006E6D6C6C6B6A6A696868676666656464B7
:102E9000636362616160605F5F5E5E5D5D5C5C5B41
:102EA0005B5A5A59595858575756565555555454B0
:102EB000535352525251515050504F4F4F4E4E4D0E
:102EC0004D4D4C4C4C4B4B4B4A4A4A49494948485A
:102ED000484747474746464645454544444444439A
:102EE00043434342424242414141002B26D47700B2
:102EF00021D01CB54FEA370703B44FF010004FF054
:102F000010014FF000000FBCBDE810400BF1010BA9
:102F1000BBF1010F08BF5FEA170722BF12F10102E0
:102F200011F101014FF0004143F1000300F00040B6
:102F300043EA00007047F9D35708DAE746EA064645
:102F400013F1400F4FEA16461FDD13F1200FDFBFCC
:102F500016430A46002120335B42C8D0C3F1200744
:102F600046EA064602FA07F74FEA164646EA070619
:102F7000C3F1200722FA03F201FA07F721FA03F15D
:102F80004FF0000342EA0702B1E746EA020646EACA
:102F900006464FEA164646EA0106BCBF46EA064622
:102FA000360C4FF000034FF000024FF000019EE797
:102FB0002DE9C048934630B491E8380007C831EA9B
:102FC000400C48BF34EA430C03D5FFF7F2FDFFF78E
:102FD0008CFFF0BCBDE800882DE9C048934630B4B2
:102FE00091E8380007C810F0804F08BF13F0804FF9
:102FF00003D100F005F8FFF778FFF0BCBDE80088CA
:1030000020F07F4780EA030023F07F4C07EB0C039E
:10301000A3F57C5300F00040A3F1FE0392F0000FF3
:1030200000F0B38095F0000F00F077802DE90149A2
:103030004FEA11404FEA144621EA004800FB06FC23
:1030400024EA064708FB06F607FB08F800FB07F72B
:1030500018EB06484CEB164C4FEA124B18EB07489E
:103060004FEA15464CEB174022EA0B4E0BFB06FCD1
:1030700025EA06470EFB06F607FB0EFE0BFB07F7DD
:103080001EEB064E4CEB164C4FF000061EEB074EA7
:103090004CEB174B18EB0B0840F1000018EB0E0B34
:1030A00058EB000840F100008F1A4FF000013CBFC0
:1030B000C943661B14BFB5EB040C00213CBFC943D8
:1030C000F61B4FEA17444EEA8E0E27EA04454FEAF4
:1030D0001C4704FB07622CEA074C05FB07F70CFBB7
:1030E00005F604FB0CFC16EB074642EB174216EB09
:1030F0000C4642EB1C421BEB060658EB0202414118
:1031000046EA9E0601D5BDE80189B619524141EB58
:103110000101A3F10103BDE801894FEA14454FEA1B
:10312000114724EA054621EA074C05FB07F406FB94
:1031300007F70CFB06F105FB0CFC11EB074144EB18
:1031400017444FEA124711EB0C4144EB1C4422EAAE
:10315000074C05FB07F206FB07F70CFB06F605FB21
:103160000CFC16EB074642EB174216EB0C4642EB03
:103170001C456A1854F1000148BF7047B619524106
:1031800041EB0101A3F10103704795F0000F37D027
:103190004FEA11424FEA144721EA024624EA074C5B
:1031A00002FB07F106FB07F70CFB06F402FB0CFC25
:1031B00014EB074441EB17414FEA154714EB0C445D
:1031C00041EB1C4125EA074C02FB07F506FB07F71C
:1031D0000CFB06F602FB0CFC16EB074645EB17450D
:1031E00016EB0C4645EB1C42121951F1000148BF89
:1031F0007047B619524141EB0101A3F10103704739
:103200004FEA14454FEA114724EA054621EA074CE4
:1032100005FB07F106FB07F70CFB06F24FF0000673
:1032200005FB0CFC12EB074241EB174112EB0C4281
:1032300051EB1C4148BF7047921841EB0101A3F1CB
:1032400001037047490050EAC12018BF04204A0D0D
:1032500018BF40F0010040F2FF72B2EB515F08BFAF
:1032600040F00200012808BF0520704730380A28C6
:1032700001D20120704700207047000010B50029DE
:103280000AD00878002807D005487844FFF7C6FB25
:10329000002801D0002010BD0248784410BD000075
:1032A0002E0800002608000021F00042A2F1605222
:1032B000B2F5801F01F0004328BFD2F17F6C0BD91B
:1032C0005FEA001C43EAC20242EB507018BF70472D
:1032D00028BF20F001007047B2F5801FBCBF184620
:1032E00070474FEA410C1CF5001F02D2084600F05F
:1032F000ABB970B500F0CAF800000089FFF7F6BF5F
:103300004FF00040A0F58000704710F0004248BF29
:103310004042B0FA80F310FA03F10AD0C3F11D0362
:1033200003F580634FEA415002EB035202EBD121D7
:1033300070474FF000007047DFF848C170B51CEAD5
:10334000111E1EBF1CEA13159EEA0C0F95EA0C0F06
:1033500000F06F8081EA030423EA4C134EEAD47E26
:1033600021EA4C1141F4801143F48013AE44A1FBD7
:10337000024CA0FB0365AEF17F7E361955EB0C05C0
:10338000A1FB034C4CF10003A0FB021C16EB0C0646
:10339000654153F10003094218BF46F0010613F4DA
:1033A000007F0BD14FEA03314FEA0530340341EA85
:1033B000155140EA16506FF003020AE04FEAC321AC
:1033C0004FEAC520F40241EA555140EA56506FF0E9
:1033D000020202EB2E4201EB025585EACE710AD0C1
:1033E0005FEA440C18BF24F0004450F1000041F1A2
:1033F000000120EAD47040F2FE7C624500D270BD2C
:10340000A84214BF4FF080444FF04044002E08BF44
:103410000024BEF1806FA8BFA1F1C041BDE870409B
:1034200080F282804FF0000001F1C04101F00041C4
:1034300070479EEA0C0F0CEA131518BF95EA0C0FA3
:1034400006D04FF0000081EA030E0EF0004170BD7F
:1034500000F01CF88900013E00F007B800F009B840
:103460004FEA430C5FEA5C5C08D081EA030100F09C
:103470005BB84FEA410C5FEA5C5CF6D14FF00000AC
:10348000014970470000FF070000F87F0EF1020EAF
:103490002EF0030E5EF8046B364205D4012A43EB8E
:1034A000030515F5001F12D8012841EB010C1CF58E
:1034B000001F0CD80ED14FEAD17C15F5001F0CEB84
:1034C0004C0C0CF1020C08BF4CEBD37C04E04FF029
:1034D000080C01E04FEAD37C0CEB4C0526FA05F60C
:1034E00006F00706B6F1040C06D20EEB860CBDE81A
:1034F00070404CF0010C6047DFE80CF0090B020251
:103500004FF000414FF00000A1F5002170BD1946B9
:103510001046012851EB010418BFD4F5001484BFF4
:10352000002001F0004170BD0808A0F500114FEA2D
:103530003101704743004FEAD30C4FEA3C0C434043
:103540001FBF40070CF1605113F0FE4F70471CF095
:10355000006F03D100200CF0004170470CF00043D5
:1035600043EA507010B540EACC0000F027F800BFE5
:10357000000000924FEA0001FFF7D6BF4FF0004174
:103580004FF00000A1F500217047000010F000414D
:1035900048BF4042B0FA80F310FA03F2C3F19D0332
:1035A0000BD051EAC35101EB1220530638BF7047CC
:1035B00000F1010008BF20F0010070470EF1020E7B
:1035C0002EF0030E5EF8044B244204D44FEA41026D
:1035D000B2F17F4F11D84FEA4003B3F17F4F0CD8BF
:1035E0000ED14FEAD07CB2F17F4F0CEB4C0C0CF1BA
:1035F000020C08BF4CEBD17C04E04FF0080C01E05A
:103600004FEAD17C0CEB4C0324FA03F404F00704DA
:10361000B4F1040C06D20EEB840CBDE810404CF063
:10362000010C6047DFE80CF0070802024FF0004091
:10363000A0F5800010BD0846420018BFD2F180728C
:1036400088BF00F0004010BDFF2141EAD050C00506
:103650007047FEF708BF000078D20000C4CC00001D
:1036600060C70000FCC10000F2BC0000E8B7000029
:1036700024B3000060AE0000E2A9000064A50000D1
:1036800022A10000E09C0000E4980000E894000003
:1036900028910000688D0000DA8900004C86000047
:1036A000F0820000947F00006A7C000040790000F6
:1036B0003E7600003C7300006C7000009C6D0000C2
:1036C000EA6A000038680000B8650000386300004E
:1036D000D6600000745E0000305C0000EC59000011
:1036E000C6570000A05500009853000090510000FC
:1036F000A64F0000BC4D0000EB4B00001A4A000032
:10370000C6480000724700006F4500006C4300008F
:10371000DC4100004C400000D53E00005E3D000052
:10372000FB3B0000983A000044390000F0370000ED
:10373000B0360000703500003F3400000E3300004A
:10374000EC310000CA300000B72F0000A42E0000AA
:10375000A02D00009C2C0000A22B0000A82A000035
:10376000BD290000D2280000F1270000102700002A
:103770003B260000662500009A240000CE230000AE
:103780000C2300004A220000B52100002021000087
:103790004D2000007A1F0000D31E00002C1E0000E8
:1037A0008C1D0000EC1C0000531C0000BA1B000024
:1037B000291B0000981A00000E1A0000841900004E
:1037C000001900007C180000FD1700007F170000A2
:1037D00007170000901600001D160000AA15000033
:1037E0003C150000CE14000066140000FE1300001B
:1037F0009A13000036130000D61200007612000063
:103800001B120000C0110000681100001011000020
:10381000BD1000006A10000011100000B80F000079
:10382000740F0000300F0000E70E00009E0E000035
:10383000580E0000120E0000CF0D00008C0D00008D
:103840004C0D00000C0D0000CE0C0000900C000090
:10385000550C00001A0C0000E20B0000AA0B00003F
:10386000740B00003E0B00000A0B0000D60A00009B
:10387000A40A0000720A0000430A0000140A0000B3
:10388000E6090000B80900008C090000600900008A
:10389000360900000C090000E3080000BA08000027
:1038A000940800006E08000048080000220800008C
:1038B000FF070000DC070000B907000096070000C2
:1038C00075070000540700003407000015070000CA
:1038D000F6060000D7060000BA0600009D060000AC
:1038E0008106000065060000490600002E06000063
:1038F00014060000FA050000E1050000C8050000FC
:10390000AF050000960500007F0500006905000076
:10391000530500003D0500002705000012050000CA
:10392000FD040000E8040000D4040000C00400000E
:10393000AD0400009A040000870400007504000034
:103940006304000051040000400400002F04000044
:103950001E0400000E040000FE030000EE03000041
:10396000DF030000CF030000C0030000B10300002C
:10397000A203000094030000860300007803000007
:103980006B0300005E0300005103000044030000CD
:10399000380300002B0300001F0300001303000086
:1039A00008030000FC020000F1020000E502000034
:1039B000DB020000D0020000C6020000BB020000D3
:1039C000B1020000A70200003031323334353637FF
:1039D0003839414243444546403058003031323353
:1039E0003435363738396162636465664030780053
:1039F00004000008000000000000000200010000B8
:103A00001000000002400000000000A000000000C4
:103A100005400000000000C8000000000C4000004D
:103A20000000409C00000000194000000020BCBEC7
:103A30000000000034400000BFC91B8E00000004DD
:103A4000B5400000504BCFD06607E2CF0100000028
:103A50006C4100003E8251AADFEEA7340100000055
:103A6000D9420000DCB5A0E23A301F97FFFFFFFF0C
:103A7000B4450000FD25A0C8E9A3C14FFFFFFFFF2B
:103A8000FF3F00000000008000000000FF3F00003A
:103A90000000008000000000D43A00080000002070
:103AA000340000006C010008083B000834000020CE
:103AB0006C070000880100081C00000043000000A3
:103AC000F8FFFFFF0C0000000E0000000F000000D8
:103AD0002E00000000A24A040000000000000000C8
:103AE00001020304060708090000000000000000AE
:103AF00000000000000001020304010203040607A5
:083B0000080902040608000098
:0400000508000131BD
:00000001FF
